{
  "contractName": "ATM",
  "abi": [
    {
      "inputs": [
        {
          "internalType": "string",
          "name": "_name",
          "type": "string"
        },
        {
          "internalType": "address",
          "name": "_issuer",
          "type": "address"
        }
      ],
      "payable": false,
      "stateMutability": "nonpayable",
      "type": "constructor"
    },
    {
      "anonymous": false,
      "inputs": [
        {
          "indexed": true,
          "internalType": "address",
          "name": "previousOwner",
          "type": "address"
        },
        {
          "indexed": true,
          "internalType": "address",
          "name": "newOwner",
          "type": "address"
        }
      ],
      "name": "OwnershipTransferred",
      "type": "event"
    },
    {
      "constant": true,
      "inputs": [
        {
          "internalType": "bytes32",
          "name": "",
          "type": "bytes32"
        }
      ],
      "name": "certificateClaimed",
      "outputs": [
        {
          "internalType": "bool",
          "name": "",
          "type": "bool"
        }
      ],
      "payable": false,
      "stateMutability": "view",
      "type": "function"
    },
    {
      "constant": true,
      "inputs": [
        {
          "internalType": "address",
          "name": "",
          "type": "address"
        },
        {
          "internalType": "address",
          "name": "",
          "type": "address"
        }
      ],
      "name": "delegates",
      "outputs": [
        {
          "internalType": "bool",
          "name": "",
          "type": "bool"
        }
      ],
      "payable": false,
      "stateMutability": "view",
      "type": "function"
    },
    {
      "constant": true,
      "inputs": [],
      "name": "isOwner",
      "outputs": [
        {
          "internalType": "bool",
          "name": "",
          "type": "bool"
        }
      ],
      "payable": false,
      "stateMutability": "view",
      "type": "function"
    },
    {
      "constant": true,
      "inputs": [],
      "name": "name",
      "outputs": [
        {
          "internalType": "string",
          "name": "",
          "type": "string"
        }
      ],
      "payable": false,
      "stateMutability": "view",
      "type": "function"
    },
    {
      "constant": true,
      "inputs": [],
      "name": "owner",
      "outputs": [
        {
          "internalType": "address",
          "name": "",
          "type": "address"
        }
      ],
      "payable": false,
      "stateMutability": "view",
      "type": "function"
    },
    {
      "constant": false,
      "inputs": [],
      "name": "renounceOwnership",
      "outputs": [],
      "payable": false,
      "stateMutability": "nonpayable",
      "type": "function"
    },
    {
      "constant": false,
      "inputs": [
        {
          "internalType": "address",
          "name": "newOwner",
          "type": "address"
        }
      ],
      "name": "transferOwnership",
      "outputs": [],
      "payable": false,
      "stateMutability": "nonpayable",
      "type": "function"
    },
    {
      "constant": false,
      "inputs": [
        {
          "internalType": "address",
          "name": "_from",
          "type": "address"
        },
        {
          "internalType": "address",
          "name": "_erc20",
          "type": "address"
        },
        {
          "internalType": "uint256",
          "name": "_amount",
          "type": "uint256"
        },
        {
          "internalType": "uint256",
          "name": "_nonce",
          "type": "uint256"
        },
        {
          "internalType": "bytes",
          "name": "_signature",
          "type": "bytes"
        }
      ],
      "name": "redeem",
      "outputs": [],
      "payable": false,
      "stateMutability": "nonpayable",
      "type": "function"
    },
    {
      "constant": false,
      "inputs": [
        {
          "internalType": "address",
          "name": "_issuer",
          "type": "address"
        }
      ],
      "name": "addDelegate",
      "outputs": [],
      "payable": false,
      "stateMutability": "nonpayable",
      "type": "function"
    },
    {
      "constant": false,
      "inputs": [
        {
          "internalType": "address",
          "name": "_issuer",
          "type": "address"
        }
      ],
      "name": "removeDelegate",
      "outputs": [],
      "payable": false,
      "stateMutability": "nonpayable",
      "type": "function"
    },
    {
      "constant": true,
      "inputs": [
        {
          "internalType": "uint256",
          "name": "_amount",
          "type": "uint256"
        },
        {
          "internalType": "address",
          "name": "_recipient",
          "type": "address"
        },
        {
          "internalType": "address",
          "name": "_holder",
          "type": "address"
        },
        {
          "internalType": "address",
          "name": "_erc20",
          "type": "address"
        },
        {
          "internalType": "uint256",
          "name": "_nonce",
          "type": "uint256"
        }
      ],
      "name": "getCertificateHash",
      "outputs": [
        {
          "internalType": "bytes32",
          "name": "",
          "type": "bytes32"
        }
      ],
      "payable": false,
      "stateMutability": "view",
      "type": "function"
    },
    {
      "constant": true,
      "inputs": [
        {
          "internalType": "address",
          "name": "_from",
          "type": "address"
        },
        {
          "internalType": "address",
          "name": "_recipient",
          "type": "address"
        },
        {
          "internalType": "address",
          "name": "_erc20",
          "type": "address"
        },
        {
          "internalType": "uint256",
          "name": "_amount",
          "type": "uint256"
        },
        {
          "internalType": "bytes",
          "name": "_signature",
          "type": "bytes"
        },
        {
          "internalType": "uint256",
          "name": "_nonce",
          "type": "uint256"
        }
      ],
      "name": "verifyCertificate",
      "outputs": [
        {
          "internalType": "bool",
          "name": "",
          "type": "bool"
        }
      ],
      "payable": false,
      "stateMutability": "view",
      "type": "function"
    }
  ],
  "bytecode": "0x60806040523480156200001157600080fd5b50604051620010c8380380620010c8833981810160405260408110156200003757600080fd5b81019080805160405193929190846401000000008211156200005857600080fd5b9083019060208201858111156200006e57600080fd5b82516401000000008111828201881017156200008957600080fd5b82525081516020918201929091019080838360005b83811015620000b85781810151838201526020016200009e565b50505050905090810190601f168015620000e65780820380516001836020036101000a031916815260200191505b506040526020015191506200010590506001600160e01b036200018616565b600080546001600160a01b0319166001600160a01b03928316178082556040519216917f8be0079c531659141344cd1fd0a4f28419497f9722a3daafe3b4186f6b6457e0908290a381516200016290600190602085019062000281565b506200017e8160046200018b60201b620009ea1790919060201c565b505062000323565b335b90565b620001a082826001600160e01b036200021816565b15620001f3576040805162461bcd60e51b815260206004820152601f60248201527f526f6c65733a206163636f756e7420616c72656164792068617320726f6c6500604482015290519081900360640190fd5b6001600160a01b0316600090815260209190915260409020805460ff19166001179055565b60006001600160a01b038216620002615760405162461bcd60e51b8152600401808060200182810382526022815260200180620010a66022913960400191505060405180910390fd5b506001600160a01b03166000908152602091909152604090205460ff1690565b828054600181600116156101000203166002900490600052602060002090601f016020900481019282601f10620002c457805160ff1916838001178555620002f4565b82800160010185558215620002f4579182015b82811115620002f4578251825591602001919060010190620002d7565b506200030292915062000306565b5090565b6200018891905b808211156200030257600081556001016200030d565b610d7380620003336000396000f3fe608060405234801561001057600080fd5b50600436106100b45760003560e01c80639ddd11dd116100715780639ddd11dd146101fa578063e5843242146102ca578063e71bdf41146102f8578063e7be01c61461031e578063f2fde38b1461033b578063fb51c17814610361576100b4565b806306fdde03146100b95780632b7398551461013657806367e7646f1461018a578063715018a6146101b25780638da5cb5b146101ba5780638f32d59b146101de575b600080fd5b6100c16103f6565b6040805160208082528351818301528351919283929083019185019080838360005b838110156100fb5781810151838201526020016100e3565b50505050905090810190601f1680156101285780820380516001836020036101000a031916815260200191505b509250505060405180910390f35b610178600480360360a081101561014c57600080fd5b508035906001600160a01b03602082013581169160408101358216916060820135169060800135610483565b60408051918252519081900360200190f35b6101b0600480360360208110156101a057600080fd5b50356001600160a01b03166104ec565b005b6101b0610547565b6101c26105d8565b604080516001600160a01b039092168252519081900360200190f35b6101e66105e7565b604080519115158252519081900360200190f35b6101e6600480360360c081101561021057600080fd5b6001600160a01b03823581169260208101358216926040820135909216916060820135919081019060a08101608082013564010000000081111561025357600080fd5b82018360208201111561026557600080fd5b8035906020019184600183028401116401000000008311171561028757600080fd5b91908080601f016020809104026020016040519081016040528093929190818152602001838380828437600092019190915250929550509135925061060b915050565b6101e6600480360360408110156102e057600080fd5b506001600160a01b0381358116916020013516610634565b6101b06004803603602081101561030e57600080fd5b50356001600160a01b0316610654565b6101e66004803603602081101561033457600080fd5b50356106ac565b6101b06004803603602081101561035157600080fd5b50356001600160a01b03166106c1565b6101b0600480360360a081101561037757600080fd5b6001600160a01b03823581169260208101359091169160408201359160608101359181019060a0810160808201356401000000008111156103b757600080fd5b8201836020820111156103c957600080fd5b803590602001918460018302840111640100000000831117156103eb57600080fd5b509092509050610711565b60018054604080516020600284861615610100026000190190941693909304601f8101849004840282018401909252818152929183018282801561047b5780601f106104505761010080835404028352916020019161047b565b820191906000526020600020905b81548152906001019060200180831161045e57829003601f168201915b505050505081565b6040805130606090811b60208084019190915260348301989098526bffffffffffffffffffffffff1996811b8716605483015294851b861660688201529290931b909316607c8201526090808201939093528151808203909301835260b0019052805191012090565b6104f46105e7565b610533576040805162461bcd60e51b81526020600482018190526024820152600080516020610cfd833981519152604482015290519081900360640190fd5b61054460048263ffffffff61090716565b50565b61054f6105e7565b61058e576040805162461bcd60e51b81526020600482018190526024820152600080516020610cfd833981519152604482015290519081900360640190fd5b600080546040516001600160a01b03909116907f8be0079c531659141344cd1fd0a4f28419497f9722a3daafe3b4186f6b6457e0908390a3600080546001600160a01b0319169055565b6000546001600160a01b031690565b600080546001600160a01b03166105fc61096e565b6001600160a01b031614905090565b60008061061b85888a8987610483565b905061062881858a610972565b98975050505050505050565b600360209081526000928352604080842090915290825290205460ff1681565b61065c6105e7565b61069b576040805162461bcd60e51b81526020600482018190526024820152600080516020610cfd833981519152604482015290519081900360640190fd5b61054460048263ffffffff6109ea16565b60026020526000908152604090205460ff1681565b6106c96105e7565b610708576040805162461bcd60e51b81526020600482018190526024820152600080516020610cfd833981519152604482015290519081900360640190fd5b61054481610a6b565b60006107208533898988610483565b90506107678733888887878080601f0160208091040260200160405190810160405280939291908181526020018383808284376000920191909152508c925061060b915050565b6107b8576040805162461bcd60e51b815260206004820152601f60248201527f4365727469666963617465205369676e6174757265204e6f742056616c696400604482015290519081900360640190fd5b60008181526002602052604090205460ff161561081c576040805162461bcd60e51b815260206004820152601b60248201527f436572746966696361746520616c726561647920636c61696d65640000000000604482015290519081900360640190fd5b6000818152600260209081526040808320805460ff1916600117905580516323b872dd60e01b81526001600160a01b038b81166004830152336024830152604482018a905291518a94928516936323b872dd936064808501949293928390030190829087803b15801561088e57600080fd5b505af11580156108a2573d6000803e3d6000fd5b505050506040513d60208110156108b857600080fd5b50516108fd576040805162461bcd60e51b815260206004820152600f60248201526e151c985b9cd9995c8811985a5b1959608a1b604482015290519081900360640190fd5b5050505050505050565b6109118282610b0b565b61094c5760405162461bcd60e51b8152600401808060200182810382526021815260200180610cdc6021913960400191505060405180910390fd5b6001600160a01b0316600090815260209190915260409020805460ff19169055565b3390565b60008061098e8461098287610b76565b9063ffffffff610bc716565b9050826001600160a01b0316816001600160a01b031614156109b45760019150506109e3565b6001600160a01b0380841660009081526003602090815260408083209490931682529290925290205460ff1690505b9392505050565b6109f48282610b0b565b15610a46576040805162461bcd60e51b815260206004820152601f60248201527f526f6c65733a206163636f756e7420616c72656164792068617320726f6c6500604482015290519081900360640190fd5b6001600160a01b0316600090815260209190915260409020805460ff19166001179055565b6001600160a01b038116610ab05760405162461bcd60e51b8152600401808060200182810382526026815260200180610cb66026913960400191505060405180910390fd5b600080546040516001600160a01b03808516939216917f8be0079c531659141344cd1fd0a4f28419497f9722a3daafe3b4186f6b6457e091a3600080546001600160a01b0319166001600160a01b0392909216919091179055565b60006001600160a01b038216610b525760405162461bcd60e51b8152600401808060200182810382526022815260200180610d1d6022913960400191505060405180910390fd5b506001600160a01b03811660009081526020839052604090205460ff165b92915050565b604080517f19457468657265756d205369676e6564204d6573736167653a0a333200000000602080830191909152603c8083019490945282518083039094018452605c909101909152815191012090565b60008151604114610bda57506000610b70565b60208201516040830151606084015160001a7f7fffffffffffffffffffffffffffffff5d576e7357a4501ddfe92f46681b20a0821115610c205760009350505050610b70565b8060ff16601b14158015610c3857508060ff16601c14155b15610c495760009350505050610b70565b6040805160008152602080820180845289905260ff8416828401526060820186905260808201859052915160019260a0808401939192601f1981019281900390910190855afa158015610ca0573d6000803e3d6000fd5b5050604051601f19015197965050505050505056fe4f776e61626c653a206e6577206f776e657220697320746865207a65726f2061646472657373526f6c65733a206163636f756e7420646f6573206e6f74206861766520726f6c654f776e61626c653a2063616c6c6572206973206e6f7420746865206f776e6572526f6c65733a206163636f756e7420697320746865207a65726f2061646472657373a265627a7a723158209519b35f1ac6a794ed2835b0a105b64151e971155741559d14a00431f85864b464736f6c634300050e0032526f6c65733a206163636f756e7420697320746865207a65726f2061646472657373",
  "source": "pragma solidity ^0.5.0;\n\n\n/* --- Global --- */\nimport \"@openzeppelin/contracts/math/SafeMath.sol\";\nimport \"@openzeppelin/contracts/cryptography/ECDSA.sol\";\nimport \"@openzeppelin/contracts/token/ERC20/IERC20.sol\";\nimport \"@openzeppelin/contracts/token/ERC20/SafeERC20.sol\";\nimport \"@openzeppelin/contracts/ownership/Ownable.sol\";\nimport \"@openzeppelin/contracts/access/Roles.sol\";\n\ncontract ATM is Ownable {\n\n    /* -------------------------------------- */\n    // Libraries\n    /* -------------------------------------- */\n    using ECDSA for bytes32;\n    using SafeMath for uint256;\n    using Roles for Roles.Role;\n    /* -------------------------------------- */\n    // Variables\n    /* -------------------------------------- */\n    /* --- Variables : Public --- */\n    string public name;\n    mapping (bytes32 => bool) public certificateClaimed;\n    mapping (address => mapping (address => bool)) public delegates;\n\n    /* --- Variables : Private --- */\n    Roles.Role private _delegate;\n\n    /* -------------------------------------- */\n    // Public : Functions\n    /* -------------------------------------- */\n\n    constructor (\n        string memory _name,\n        address _issuer\n    ) public {\n        name = _name;\n        _delegate.add(_issuer);\n    }\n\n    /// Redeem\n    function redeem(\n        address _from,\n        address _erc20,\n        uint256 _amount,\n        uint256 _nonce,\n        bytes calldata _signature)\n        external\n    {\n        // Recreate hash from params\n        bytes32 certHash = getCertificateHash(_amount, msg.sender, _from, _erc20, _nonce);\n\n        // Verify signature is valid for the hash\n        // require(_verifySignature(certHash, _signature, _from), \"Certificate Signature Not Valid\");\n        require(verifyCertificate(_from, msg.sender, _erc20, _amount, _signature, _nonce), \"Certificate Signature Not Valid\");\n        // Verify that certificate is not already claimed\n        require(!certificateClaimed[certHash], \"Certificate already claimed\");\n\n        // Mark Claimed and transfer to recipient\n        certificateClaimed[certHash] = true;\n        IERC20 ERC20 = IERC20(_erc20);\n        require(ERC20.transferFrom(_from, msg.sender, _amount), \"Transfer Failed\");\n    }\n\n    function addDelegate(address _issuer) external onlyOwner {\n        _delegate.add(_issuer);\n    }\n    \n    function removeDelegate(address _issuer) external onlyOwner {\n        _delegate.remove(_issuer);\n    }\n\n    /* -------------------------------------- */\n    // Internal : Functions\n    /* -------------------------------------- */\n\n    // Verify Signature\n    function _verifySignature(\n        bytes32 _hash,\n        bytes memory _signature,\n        address _from)\n        internal view returns (bool)\n    {\n        address signer = _hash.toEthSignedMessageHash().recover(_signature);\n        if (signer == _from) {\n            return true;\n        }\n        return delegates[_from][signer];\n    }\n\n    /* -------------------------------------- */\n    // View : Functions\n    /* -------------------------------------- */\n\n    /// Create Unsigned Certificate Hash\n    function getCertificateHash(\n        uint256 _amount,\n        address _recipient,\n        address _holder,\n        address _erc20,\n        uint256 _nonce)\n        public view returns (bytes32)\n    {\n        return keccak256(abi.encodePacked(address(this), _amount, _recipient, _holder, _erc20, _nonce));\n    }\n\n    // Verify Certificate\n    function verifyCertificate(\n        address _from,\n        address _recipient,\n        address _erc20,\n        uint256 _amount,\n        bytes memory _signature,\n        uint256 _nonce)\n        public view returns (bool)\n    {\n        bytes32 certHash = getCertificateHash(_amount, _recipient, _from, _erc20, _nonce);\n        return _verifySignature(certHash, _signature, _from);\n    }\n}",
  "sourcePath": "/Users/admin/Documents/GitHub/horizin/shadow/bank/token/contracts/ATM.sol",
  "compiler": {
    "name": "solc",
    "version": "0.5.14+commit.01f1aaa4.Emscripten.clang"
  },
  "schemaVersion": "3.0.23",
  "updatedAt": "2020-04-03T17:03:08.169Z",
  "devdoc": {
    "methods": {
      "isOwner()": {
        "details": "Returns true if the caller is the current owner."
      },
      "owner()": {
        "details": "Returns the address of the current owner."
      },
      "renounceOwnership()": {
        "details": "Leaves the contract without owner. It will not be possible to call `onlyOwner` functions anymore. Can only be called by the current owner.     * NOTE: Renouncing ownership will leave the contract without an owner, thereby removing any functionality that is only available to the owner."
      },
      "transferOwnership(address)": {
        "details": "Transfers ownership of the contract to a new account (`newOwner`). Can only be called by the current owner."
      }
    }
  },
  "userdoc": {
    "methods": {
      "getCertificateHash(uint256,address,address,address,uint256)": {
        "notice": "Create Unsigned Certificate Hash"
      },
      "redeem(address,address,uint256,uint256,bytes)": {
        "notice": "Redeem"
      }
    }
  }
}